:100000000C9446000C9465000C9465000C946500FB
:100010000C9465000C9465000C9465000C946500CC
:100020000C9465000C9465000C9465000C946500BC
:100030000C9465000C9465000C9465000C946500AC
:100040000C9465000C9465000C9465000C9465009C
:100050000C9465000C9465000C9465000C9465008C
:100060000C9465000C9465000C9465000C9465007C
:100070000C9465000C9465000C9465000C9465006C
:100080000C9465000C9465000C94650011241FBE4F
:10009000CFEFD0E1DEBFCDBF11E0A0E0B1E0E6E7F9
:1000A000F0E100E00BBF02C007900D92A030B10755
:1000B000D9F711E0A0E0B1E001C01D92A839B10765
:1000C000E1F70E9410010C943A080C940000FC0126
:1000D00028C070E840E050E0A1E2B0E1809100016A
:1000E000909101019C01220F331F97FF02C02A2724
:1000F0003B2730930101209300018081872351F039
:1001000080910001909101018A279B279093010122
:100110008093000176954F5F5F4F48305105F1F6AF
:1001200031966150B0F680910001909101010895DF
:10013000FC0128C071E040E050E0A8E0B4E8809104
:100140000001909101019C013695279580FF02C026
:100150002A273B27309301012093000180818723C8
:1001600051F080910001909101018A279B27909383
:10017000010180930001770F4F5F5F4F48305105B9
:10018000F1F631966150B0F6809100019091010135
:1001900008951AB81BB886E0809395008FE289B95C
:1001A0001092900088E18AB90895EAE9F0E010829F
:1001B00010929B0086E080939D008FE280939900CF
:1001C0001092980088E1808308955D9BFECF8CB9E2
:1001D0000895982F80919B0085FFFCCF90939C0001
:1001E00008955F9BFECF8CB19927089580919B0065
:1001F00087FFFCCF80919C0099270895FC0104C0E3
:100200005D9BFECF8CB9319680818823C9F75D9BB9
:10021000FECF8AE08CB95D9BFECF8DE08CB908954E
:10022000CFEFD0E1DEBFCDBF80E090E00E94D306EB
:1002300081E090E00E94FA0378940E94C90060E88F
:1002400070E080E090E00E947E069093030180932E
:1002500002010E94FE0080E090E00C943A08FC014C
:1002600007C080919B0085FFFCCF90939C00319646
:1002700090819923B1F780919B0085FFFCCF8AE0A4
:1002800080939C0080919B0085FFFCCF8DE0809344
:100290009C000895AF92BF92CF92DF92EF92FF92AF
:1002A0000F931F93BC01843691050CF05EC0882724
:1002B00077FD8095982F0E9478075B016C0122E5FD
:1002C00039E44DE150E40E94F2077B018C0120E00B
:1002D00030E040E85FE30E94820787FD20C220E013
:1002E00030E04FE753E4C801B7010E9485071816B4
:1002F0000CF067C220E030E04AE754E4C601B501E3
:100300000E9415075B016C0126E636E646EE54E4D2
:100310000E94F2077B018C0120E030E040E85FE3BF
:100320000E94820787FD22C220E03FEF4FE757E49B
:10033000C801B7010E94850718160CF03AC220E0E8
:1003400030E040E251E4C601B5010E94F2070E948C
:100350005B07E8EBF0E005C0CF010197F1F76150D2
:10036000704061157105C1F732C2883C91050CF0EF
:1003700063C085EF8A95F1F764567040882777FD52
:100380008095982F0E9478075B016C0122E539E483
:100390004DE150E40E94F2077B018C0120E030E047
:1003A00040E85FE30E94820787FDB9C120E030E0AA
:1003B0004FE753E4C801B7010E94850718160CF0F7
:1003C00000C220E030E04AE754E4C601B5010E94D3
:1003D00015075B016C0126E636E646EE54E40E9402
:1003E000F2077B018C0120E030E040E85FE30E94EF
:1003F000820787FDBBC120E03FEF4FE757E4C8010C
:10040000B7010E94850718160CF0D3C120E030E038
:1004100040E251E4C601B5010E94F2070E945B0769
:10042000E8EBF0E005C0CF010197F1F761507040B3
:1004300061157105C1F7CBC181E06C3278070CF012
:1004400066C085EF982F9A95F1F78A95F1F7685C69
:100450007040882777FD8095982F0E9478075B0170
:100460006C0122E539E44DE150E40E94F2077B0182
:100470008C0120E030E040E85FE30E94820787FDC6
:100480004EC120E030E04FE753E4C801B7010E94BD
:10049000850718160CF095C120E030E04AE754E4D7
:1004A000C601B5010E9415075B016C0126E636E620
:1004B00046EE54E40E94F2077B018C0120E030E01C
:1004C00040E85FE30E94820787FD50C120E03FEFD4
:1004D0004FE757E4C801B7010E94850718160CF0D2
:1004E00068C120E030E040E251E4C601B5010E945D
:1004F000F2070E945B07E8EBF0E005C0CF0101972F
:10050000F1F76150704061157105C1F760C181E07C
:10051000603978070CF069C085EF982F9A95F1F74C
:10052000982F9A95F1F78A95F1F76C5271408827C8
:1005300077FD8095982F0E9478075B016C0122E57A
:1005400039E44DE150E40E94F2077B018C0120E088
:1005500030E040E85FE30E94820787FDE0C020E0D2
:1005600030E04FE753E4C801B7010E948507181631
:100570000CF027C120E030E04AE754E4C601B501A1
:100580000E9415075B016C0126E636E646EE54E450
:100590000E94F2077B018C0120E030E040E85FE33D
:1005A0000E94820787FDE2C020E03FEF4FE757E45B
:1005B000C801B7010E94850718160CF0FAC020E0A8
:1005C00030E040E251E4C601B5010E94F2070E940A
:1005D0005B07E8EBF0E005C0CF010197F1F7615050
:1005E000704061157105C1F7F2C081E0643F780782
:1005F0000CF06CC085EF982F9A95F1F7982F9A958B
:10060000F1F7982F9A95F1F78A95F1F760597140B3
:10061000882777FD8095982F0E9478075B016C01F1
:1006200022E539E44DE150E40E94F2077B018C01A0
:1006300020E030E040E85FE30E94820787FD6FC062
:1006400020E030E04FE753E4C801B7010E9485077E
:1006500018160CF0B6C020E030E04AE754E4C601BA
:10066000B5010E9415075B016C0126E636E646EEF1
:1006700054E40E94F2077B018C0120E030E040E866
:100680005FE30E94820787FD71C020E03FEF4FE7E4
:1006900057E4C801B7010E94850718160CF089C0FD
:1006A00020E030E040E251E4C601B5010E94F207CB
:1006B0000E945B07E8EBF0E005C0CF010197F1F77E
:1006C0006150704061157105C1F781C085EF982FA9
:1006D0009A95F1F7982F9A95F1F7982F9A95F1F747
:1006E000982F9A95F1F78A95F1F7645F7140882702
:1006F00077FD8095982F0E9478075B016C0122E5B9
:1007000039E44DE150E40E94F2077B018C0120E0C6
:1007100030E040E85FE30E948207882314F461E040
:1007200054C020E030E04FE753E4C801B7010E9415
:10073000850718160CF045C020E030E04AE754E485
:10074000C601B5010E9415075B016C0126E636E67D
:1007500046EE54E40E94F2077B018C0120E030E079
:1007600040E85FE30E94820788231CF481E090E068
:1007700025C020E03FEF4FE757E4C801B7010E94D2
:1007800085071816B4F420E030E040E251E4C601D9
:10079000B5010E94F2070E945B07E8EBF0E005C09C
:1007A000CF010197F1F76150704061157105C1F7F4
:1007B0000EC0C801B7010E945B07CB010197F1F79A
:1007C00006C0C801B7010E945B076A95F1F71F9147
:1007D0000F91FF90EF90DF90CF90BF90AF90089572
:1007E0002FEF27BB88BB81E090E0089517BA86B34E
:1007F00099270895892BB9F186E090E090938701BD
:100800008093860180E490E0909389018093880131
:100810008CE390E090938D0180938C018AE090E0CE
:10082000909385018093840189E090E090939301F7
:100830008093920187E390E09093970180939601D3
:1008400010928F0110928E0186E292E090939101B6
:100850008093900186E490E09093950180939401B9
:1008600088E691E030C081E090E09093870180932A
:10087000860187E090E090938901809388019093AE
:100880008D0180938C0122E030E03093850120932C
:10089000840110929301109292019093970180939A
:1008A000960130938F0120938E0186E490E090931F
:1008B00091018093900188E090E09093950180935E
:1008C000940188E290E090938B0180938A010895CF
:1008D0000F931F93BC9AC49A85E090E00E944A014E
:1008E000C49886E292E00E944A01C49ABC9886E9C4
:1008F00090E00E944A0106B385E090E00E944A0120
:100900001127C801807190701F910F910895892B54
:1009100051F0BC9AC49A82E090E00E944A01C498C7
:1009200088E090E009C0BC9AC49A82E090E00E94FE
:100930004A01C4988AE590E00E944A01C49ABC9892
:100940008AE090E00E944A0108950F931F93BC9A99
:10095000C49A81E090E00E944A01C49884E090E04B
:100960000E944A01C49ABC9882E090E00E944A0129
:1009700006B38FE090E00E944A01BC9AC49A112706
:10098000C801807190701F910F9108950F931F936C
:10099000CF93DF93EC0100E010E0CE018170907006
:1009A0000E948704D595C7950F5F1F4F083011052A
:1009B000A1F7DF91CF911F910F9108950F931F938E
:1009C000CF93DF93EC0100E010E0CE0181709070D6
:1009D0000E948704D595C7950F5F1F4F0031110501
:1009E000A1F7DF91CF911F910F9108950F931F935E
:1009F000CF93DF9300E010E0C0E0D0E0D595C7953D
:100A00000E94A504892B09F0C0680F5F1F4F0830B2
:100A10001105A1F7CE01DF91CF911F910F9108959C
:100A20000F931F93CF93DF9300E010E0C0E0D0E07E
:100A3000D595C7950E94A504892B09F0C0680F5F62
:100A40001F4F00311105A1F7CE01DF91CF911F910A
:100A50000F910895EF92FF920F931F93CF93DF931F
:100A6000EC01EE24FF2400E010E015950795C0FF8F
:100A700006C00E94A504892B31F0006804C080E004
:100A800090E00E9487040894E11CF11C88E0E816BD
:100A9000F10419F0D595C795E8CFC801DF91CF9142
:100AA0001F910F91FF90EF900895EF92FF920F9397
:100AB0001F93CF93DF937B01EC0100E010E007C0B0
:100AC000888199270E942A0589930F5F1F4F0E1571
:100AD0001F05B4F3DF91CF911F910F91FF90EF901D
:100AE0000895EF92FF920F931F93CF93DF93EC0142
:100AF0007B018A010E946804892B19F080E090E054
:100B000015C08CEC90E00E94C6048FE090E00E943B
:100B1000C604CE010E94DE04B801C7010E9455053B
:100B20000E94F6040E94F6040E941005DF91CF9106
:100B30001F910F91FF90EF900895AF92BF92CF92C7
:100B4000DF92EF92FF920F931F93CF93DF93EC010D
:100B50007B016A0159010E946804892B19F080E029
:100B600090E027C08CEC90E00E94C6048AEA90E0F6
:100B70000E94C6040E94F604182F002719830883D8
:100B80000E94F604082B192B198308830E94F6048F
:100B9000F7018083C0E0D0E0860106C00E94F60421
:100BA000F80181938F012196CA15DB05BCF30E94E1
:100BB0001005DF91CF911F910F91FF90EF90DF9083
:100BC000CF90BF90AF9008951F93CF93DF93EC0128
:100BD000162F0E946804892B19F080E090E01DC058
:100BE0008CEC90E00E94C60485E590E00E94C6046B
:100BF000CE010E94DE04812F99270E94C60480E066
:100C00009AE50197F1F70E94F60420E030E08A3A75
:100C1000910511F421E030E0C901DF91CF911F91DE
:100C20000895E4E0F1E08AE0819391E0E438F90787
:100C3000D9F70895AF92BF92CF92DF92EF92FF92D1
:100C40000F931F938332910514F0BC014BC09C019C
:100C5000B901882777FD8095982F0E9478075B015E
:100C60006C0126E636E646EE54E40E94F2077B016C
:100C70008C0120E030E040E85FE30E948207882397
:100C80001CF481E090E025C020E03FEF4FE757E4FF
:100C9000C801B7010E9485071816B4F420E030E0BF
:100CA00040E251E4C601B5010E94F2070E945B07D1
:100CB000E8EBF0E005C0CF010197F1F7615070401B
:100CC00061157105C1F711C0C801B7010E945B072A
:100CD000CB010197F1F709C080E094E20197F1F7A9
:100CE0006550704016161706BCF31F910F91FF90C8
:100CF000EF90DF90CF90BF90AF900895EF92FF926A
:100D00000F931F93CF93DF93EC017B010E94680444
:100D1000892B19F080E090E035C085E090E00E94DA
:100D2000D3068CEC90E00E94C60480EF90E00E9415
:100D3000C604CE010E94DE0484E090E00E94D30647
:100D4000E4E0F1E08AE0819391E0E438F907D9F733
:100D5000C0E0D0E004E011E006C00E94F604F80113
:100D600081938F012196CE15DF05BCF386E090E0DC
:100D70000E94D3060E94680483E090E00E94D3069C
:100D800084E091E0DF91CF911F910F91FF90EF9060
:100D90000895D19889B39927D19A22E030E082272B
:100DA00093278BBB08952AB327602ABB8BBB08957A
:100DB0008AB387608ABB85E08BBB0895AC018AB398
:100DC00087608ABB4BBB28E833E1E8EBF0E0CF015A
:100DD0000197F1F721503040D1F78AB387608ABB81
:100DE000CA0123E0959587952A95E1F78BBB28E802
:100DF00033E1E8EBF0E0CF010197F1F7215030400B
:100E0000D1F78AB387608ABB86E0559547958A9566
:100E1000E1F74BBB28E833E1E8EBF0E0CF010197C5
:100E2000F1F721503040D1F70895AED001D091C0F4
:100E3000552359F0992369F09F575F57951B33F459
:100E400042F4903811F4915805C09BC091589F3FCF
:100E500009F4C6C0BB27112462177307840730F456
:100E6000660F771F881FBB1F915098F311D00F9208
:100E70000FD00F920DD0A0E82617370748071B06A2
:100E800009F0A048BA2F602D7F918F91002408951A
:100E9000A0E80024621773078407B10528F0621BDD
:100EA000730B840BB1090A2A660F771F881FBB1FBB
:100EB000A69581F7089597FB73D09F3738F0FEE928
:100EC000F91B982F872F762F6B2F05C086C096951C
:100ED000879577956795F150D0F73EF4909580957A
:100EE000709561957F4F8F4F9F4F0895E89403C091
:100EF00097FB0EF4F3DFB62F672F782F892F9EE92B
:100F0000002427C00ED05EF004C00BD026F001C034
:100F100008D019F020F48FEF089580E0089581E063
:100F2000089597FB092E052600F8689430D0E894C0
:100F300007FC07C0621773078407950721F008F4C0
:100F400000940794989408959A95BB0F661F771F95
:100F5000881F11249923A1F08823B2F79F3F59F0ED
:100F6000BB0F48F421F4002011F460FF04C06F5F50
:100F70007F4F8F4F9F4F881F9795879597F90895BB
:100F80002CC09FEF80EC0895052E092607FA440F28
:100F9000551F5F3F79F0AA27A51708F051E0479544
:100FA000880F991F9F3F31F0BB27B91708F091E0D8
:100FB000879508959F919F911124E3CF97FB880F08
:100FC000991F9F3F31F0BB27B91708F091E0879533
:100FD00008959F919F911124D4CF66277727882762
:100FE00099270895D1DF01D0B4CF992339F0552343
:100FF00029F09F575F57950F13F49AF1F1CF91584D
:101000009F3FE1F3629FA12D0F92BB27639FA00D2D
:10101000B11DEE27729FA00DB11DEE1FAF93AA2741
:10102000649FB00DE11D739FB00DE11DAA1F6627DF
:10103000829FB00DE11DA61F5527749FE00DA11DD5
:10104000551F839FE00DA11D561F849FA00D511DAC
:10105000852F7A2F6E2F1F900F9088231AF4939567
:1010600039F48FCF000C111CBB1F661F771F881F20
:0610700001280895FFCFE6
:00000001FF
